:020000040800F2
:1000000000500020B92500083524000837240008D6
:10001000392400083B2400083D24000800000000AB
:100020000000000000000000000000008140000807
:100030003F24000800000000114100084B3B00086D
:1000400001260008012600080126000801260008F4
:1000500001260008012600080126000801260008E4
:1000600001260008012600080126000801260008D4
:1000700001260008012600080126000801260008C4
:1000800001260008012600080126000801260008B4
:1000900001260008012600080126000801260008A4
:1000A0000126000841240008012600080126000856
:1000B0000126000801260008012600080126000884
:1000C0000126000801260008012600080126000874
:1000D0000126000801260008012600080126000864
:1000E0000126000801260008012600080000000083
:1000F0000000000000000000000000000000000000
:0C01000000000000000000005FF808F1A3
:1001100010B5054C237833B9044B13B10448AFF341
:1001200000800123237010BD840100200000000026
:10013000BC6F000808B5034B1BB103490348AFF37C
:10014000008008BD0000000088010020BC6F00088E
:1001500081F0004102E000BF83F0004330B54FEA78
:1001600041044FEA430594EA050F08BF90EA020FE5
:100170001FBF54EA000C55EA020C7FEA645C7FEA78
:10018000655C00F0E2804FEA5454D4EB5555B8BF9B
:100190006D420CDD2C4480EA020281EA030382EA0C
:1001A000000083EA010180EA020281EA0303362D9E
:1001B00088BF30BD11F0004F4FEA01314FF4801C71
:1001C0004CEA113102D0404261EB410113F0004F83
:1001D0004FEA03334CEA133302D0524263EB43033A
:1001E00094EA050F00F0A780A4F10104D5F1200ED8
:1001F0000DDB02FA0EFC22FA05F2801841F1000133
:1002000003FA0EF2801843FA05F359410EE0A5F106
:1002100020050EF1200E012A03FA0EFC28BF4CF037
:10022000020C43FA05F3C01851EBE37101F00045ED
:1002300007D54FF0000EDCF1000C7EEB00006EEBFA
:100240000101B1F5801F1BD3B1F5001F0CD3490884
:100250005FEA30004FEA3C0C04F101044FEA4452DB
:1002600012F5800F80F09A80BCF1004F08BF5FEA62
:10027000500C50F1000041EB045141EA050130BD42
:100280005FEA4C0C404141EB0101013C28BFB1F554
:10029000801FE9D291F0000F04BF01460020B1FA9F
:1002A00081F308BF2033A3F10B03B3F120020CDA72
:1002B0000C3208DD02F1140CC2F10C0201FA0CF050
:1002C00021FA02F10CE002F11402D8BFC2F1200CB5
:1002D00001FA02F120FA0CFCDCBF41EA0C0190406B
:1002E000E41AA2BF01EB0451294330BD6FEA0404B4
:1002F0001F3C1CDA0C340EDC04F11404C4F120029F
:1003000020FA04F001FA02F340EA030021FA04F3B0
:1003100045EA030130BDC4F10C04C4F1200220FA07
:1003200002F001FA04F340EA0300294630BD21FA45
:1003300004F0294630BD94F0000F83F4801306BF0B
:1003400081F480110134013D4EE77FEA645C18BFFF
:100350007FEA655C29D094EA050F08BF90EA020F96
:1003600005D054EA000C04BF1946104630BD91EA8E
:10037000030F1EBF0021002030BD5FEA545C05D191
:100380004000494128BF41F0004130BD14F58004D0
:100390003CBF01F5801130BD01F0004545F0FE4144
:1003A00041F470014FF0000030BD7FEA645C1ABF79
:1003B000194610467FEA655C1CBF0B46024650EAB0
:1003C000013406BF52EA033591EA030F41F40021DC
:1003D00030BD00BF90F0000F04BF0021704730B562
:1003E0004FF4806404F132044FF000054FF0000137
:1003F00050E700BF90F0000F04BF0021704730B5F8
:100400004FF4806404F1320410F0004548BF4042CC
:100410004FF000013EE700BF42004FEAE2014FEA21
:1004200031014FEA02701FBF12F07F4393F07F4FFC
:1004300081F06051704732F07F4208BF704793F0FF
:100440007F4F04BF41F40021704730B54FF4607412
:1004500001F0004521F000411CE700BF50EA010215
:1004600008BF704730B54FF000050AE050EA0102BE
:1004700008BF704730B511F0004502D5404261EB2E
:1004800041014FF4806404F132045FEA915C3FF46F
:10049000D8AE4FF003025FEADC0C18BF03325FEA0C
:1004A000DC0C18BF033202EBDC02C2F1200300FABD
:1004B00003FC20FA02F001FA03FE40EA0E0021FAE2
:1004C00002F11444BDE600BF70B54FF0FF0C4CF4D0
:1004D000E06C1CEA11541DBF1CEA135594EA0C0F82
:1004E00095EA0C0F00F0DEF82C4481EA030621EABD
:1004F0004C5123EA4C5350EA013518BF52EA0335F8
:1005000041F4801143F4801338D0A0FB02CE4FF0A9
:100510000005E1FB02E506F00042E0FB03E54FF0D9
:100520000006E1FB03569CF0000F18BF4EF0010ED1
:10053000A4F1FF04B6F5007F64F5407404D25FEACD
:100540004E0E6D4146EB060642EAC62141EA555180
:100550004FEAC52040EA5E504FEACE2EB4F1FD0CC2
:1005600088BFBCF5E06F1ED8BEF1004F08BF5FEA40
:10057000500E50F1000041EB045170BD06F00046F2
:1005800046EA010140EA020081EA0301B4EB5C049F
:10059000C2BFD4EB0C0541EA045170BD41F4801197
:1005A0004FF0000E013C00F3AB8014F1360FDEBFBC
:1005B000002001F0004170BDC4F10004203C35DA98
:1005C0000C341BDC04F11404C4F1200500FA05F31B
:1005D00020FA04F001FA05F240EA020001F00042BC
:1005E00021F0004110EBD37021FA04F642EB060132
:1005F0005EEA430E08BF20EAD37070BDC4F10C045C
:10060000C4F1200500FA04F320FA05F001FA04F21F
:1006100040EA020001F0004110EBD37041F100010B
:100620005EEA430E08BF20EAD37070BDC4F1200516
:1006300000FA05F24EEA020E20FA04F301FA05F27E
:1006400043EA020321FA04F001F0004121FA04F226
:1006500020EA020000EBD3705EEA430E08BF20EAF6
:10066000D37070BD94F0000F0FD101F00046400030
:1006700041EB010111F4801F08BF013CF7D041EAB2
:10068000060195F0000F18BF704703F000465200B6
:1006900043EB030313F4801F08BF013DF7D043EA87
:1006A0000603704794EA0C0F0CEA135518BF95EA3D
:1006B0000C0F0CD050EA410618BF52EA4306D1D1C4
:1006C00081EA030101F000414FF0000070BD50EAE3
:1006D000410606BF1046194652EA430619D094EA6D
:1006E0000C0F02D150EA013613D195EA0C0F05D157
:1006F00052EA03361CBF104619460AD181EA0301AB
:1007000001F0004141F0FE4141F470014FF0000062
:1007100070BD41F0FE4141F4780170BD70B54FF0FD
:10072000FF0C4CF4E06C1CEA11541DBF1CEA13557D
:1007300094EA0C0F95EA0C0F00F0A7F8A4EB05045F
:1007400081EA030E52EA03354FEA013100F0888056
:100750004FEA03334FF0805545EA131343EA12631F
:100760004FEA022245EA111545EA10654FEA0026D4
:100770000EF000419D4208BF964244F1FD0404F58D
:10078000407402D25B084FEA3202B61A65EB0305E9
:100790005B084FEA32024FF480104FF4002CB6EBA6
:1007A000020E75EB030E22BFB61A754640EA0C0026
:1007B0005B084FEA3202B6EB020E75EB030E22BF66
:1007C000B61A754640EA5C005B084FEA3202B6EBA7
:1007D000020E75EB030E22BFB61A754640EA9C0066
:1007E0005B084FEA3202B6EB020E75EB030E22BF36
:1007F000B61A754640EADC0055EA060E18D04FEAF4
:10080000051545EA16754FEA06164FEAC30343EA93
:1008100052734FEAC2025FEA1C1CC0D111F4801F60
:100820000BD141EA00014FF000004FF0004CB6E759
:1008300011F4801F04BF01430020B4F1FD0C88BFF8
:10084000BCF5E06F3FF6AFAEB5EB030C04BFB6EB03
:10085000020C5FEA500C50F1000041EB045170BDF6
:100860000EF0004E4EEA113114EB5C04C2BFD4EB23
:100870000C0541EA045170BD41F480114FF0000EA7
:10088000013C90E645EA060E8DE60CEA135594EA23
:100890000C0F08BF95EA0C0F3FF43BAF94EA0C0F26
:1008A0000AD150EA01347FF434AF95EA0C0F7FF49B
:1008B00025AF104619462CE795EA0C0F06D152EAEF
:1008C00003353FF4FDAE1046194622E750EA4106D3
:1008D00018BF52EA43067FF4C5AE50EA41047FF4E4
:1008E0000DAF52EA43057FF4EBAE12E74FF0FF3C49
:1008F00006E000BF4FF0010C02E000BF4FF0010C1A
:100900004DF804CD4FEA410C7FEA6C5C4FEA430C92
:1009100018BF7FEA6C5C1BD001B050EA410C0CBFE1
:1009200052EA430C91EA030F02BF90EA020F002043
:10093000704710F1000F91EA030F58BF994208BFAA
:1009400090422CBFD8176FEAE37040F00100704767
:100950004FEA410C7FEA6C5C02D150EA013C07D1BE
:100960004FEA430C7FEA6C5CD6D152EA033CD3D009
:100970005DF8040B704700BF8446104662468C4603
:100980001946634600E000BF01B5FFF7B7FF002836
:1009900048BF10F1000F01BD4DF808EDFFF7F4FF5F
:1009A0000CBF012000205DF808FB00BF4DF808EDEA
:1009B000FFF7EAFF34BF012000205DF808FB00BF0D
:1009C0004DF808EDFFF7E0FF94BF012000205DF82F
:1009D00008FB00BF4DF808EDFFF7CEFF94BF0120E4
:1009E00000205DF808FB00BF4DF808EDFFF7C4FFDD
:1009F00034BF012000205DF808FB00BF4FEA410C26
:100A00007FEA6C5C02D150EA013C0AD14FEA430C08
:100A10007FEA6C5C02D152EA033C02D14FF0000045
:100A200070474FF0010070474A0011D212F50012D2
:100A300011D20DD56FF47873B3EB62520ED44FEA36
:100A4000C12343F0004343EA505323FA02F07047B6
:100A50004FF00000704750EA013002D14FF0FF30F4
:100A600070474FF0000070474FEA4102B2F1E04397
:100A700024BFB3F5001CDCF1FE5C0DD901F0004C85
:100A80004FEAC0024CEA5070B2F1004F40EB8300D5
:100A900008BF20F00100704711F0804F21D113F101
:100AA0003872BCBF01F00040704741F480114FEA3A
:100AB0005252C2F11802C2F1200C10FA0CF320FAC3
:100AC00002F018BF40F001004FEAC1234FEAD323E0
:100AD00003FA0CFC40EA0C0023FA02F34FEA43034A
:100AE000CCE77FEA625307D150EA01331EBF4FF0D3
:100AF000FE4040F44000704701F0004040F0FE40EE
:100B000040F40000704700BF80F0004002E000BFEA
:100B100081F0004142001FBF5FEA410392EA030FE8
:100B20007FEA226C7FEA236C6AD04FEA1262D2EB32
:100B30001363C1BFD218414048404140B8BF5B4237
:100B4000192B88BF704710F0004F40F4000020F0D0
:100B50007F4018BF404211F0004F41F4000121F0E6
:100B60007F4118BF494292EA030F3FD0A2F1010230
:100B700041FA03FC10EB0C00C3F1200301FA03F16E
:100B800000F0004302D5494260EB4000B0F5000F91
:100B900013D3B0F1807F06D340084FEA310102F150
:100BA0000102FE2A51D2B1F1004F40EBC25008BF02
:100BB00020F0010040EA03007047490040EB0000CC
:100BC000013A28BFB0F5000FEDD2B0FA80FCACF1CD
:100BD000080CB2EB0C0200FA0CF0AABF00EBC250FA
:100BE00052421843BCBFD0401843704792F0000FE8
:100BF00081F4000106BF80F400000132013BB5E73B
:100C00004FEA41037FEA226C18BF7FEA236C21D0B0
:100C100092EA030F04D092F0000F08BF0846704715
:100C200090EA010F1CBF0020704712F07F4F04D1E3
:100C3000400028BF40F00040704712F100723CBFF6
:100C400000F50000704700F0004343F0FE4040F420
:100C5000000070477FEA226216BF08467FEA2363DE
:100C60000146420206BF5FEA412390EA010F40F4C9
:100C7000800070474FF0000304E000BF10F0004315
:100C800048BF40425FEA000C08BF704743F09643FC
:100C900001464FF000001CE050EA010208BF704717
:100CA0004FF000030AE000BF50EA010208BF70479E
:100CB00011F0004302D5404261EB41015FEA010CB3
:100CC00002BF84460146002043F0B64308BFA3F1AB
:100CD0008053A3F50003BCFA8CF2083AA3EBC2538D
:100CE00010DB01FA02FC634400FA02FCC2F12002AC
:100CF000BCF1004F20FA02F243EB020008BF20F0E3
:100D00000100704702F1200201FA02FCC2F1200248
:100D100050EA4C0021FA02F243EB020008BF20EA3D
:100D2000DC7070474FF0FF0C1CEAD0521EBF1CEA6B
:100D3000D15392EA0C0F93EA0C0F6FD01A4480EA59
:100D4000010C400218BF5FEA41211ED04FF0006342
:100D500043EA501043EA5111A0FB01310CF000406E
:100D6000B1F5000F3EBF490041EAD3715B0040EA94
:100D7000010062F17F02FD2A1DD8B3F1004F40EB64
:100D8000C25008BF20F00100704790F0000F0CF037
:100D9000004C08BF49024CEA502040EA51207F3AFB
:100DA000C2BFD2F1FF0340EAC250704740F40000D6
:100DB0004FF00003013A5DDC12F1190FDCBF00F0C7
:100DC00000407047C2F10002410021FA02F1C2F175
:100DD000200200FA02FC5FEA310040F1000053EA11
:100DE0004C0308BF20EADC70704792F0000F00F05F
:100DF000004C02BF400010F4000F013AF9D040EA65
:100E00000C0093F0000F01F0004C02BF490011F4F8
:100E1000000F013BF9D041EA0C018FE70CEAD153F6
:100E200092EA0C0F18BF93EA0C0F0AD030F0004C76
:100E300018BF31F0004CD8D180EA010000F000402A
:100E4000704790F0000F17BF90F0004F084691F0E8
:100E5000000F91F0004F14D092EA0C0F01D1420222
:100E60000FD193EA0C0F03D14B0218BF084608D1EB
:100E700080EA010000F0004040F0FE4040F4000035
:100E8000704740F0FE4040F4400070474FF0FF0CC8
:100E90001CEAD0521EBF1CEAD15392EA0C0F93EA0F
:100EA0000C0F69D0A2EB030280EA010C49024FEA61
:100EB000402037D04FF0805343EA111143EA10131A
:100EC0000CF000408B4238BF5B0042F17D024FF4D2
:100ED000000C8B4224BF5B1A40EA0C00B3EB510FAD
:100EE00024BFA3EB510340EA5C00B3EB910F24BF96
:100EF000A3EB910340EA9C00B3EBD10F24BFA3EB1B
:100F0000D10340EADC001B0118BF5FEA1C1CE0D1E2
:100F1000FD2A3FF650AF8B4240EBC25008BF20F095
:100F2000010070470CF0004C4CEA50207F32C2BFE9
:100F3000D2F1FF0340EAC250704740F400004FF086
:100F40000003013A37E792F0000F00F0004C02BFB7
:100F5000400010F4000F013AF9D040EA0C0093F081
:100F6000000F01F0004C02BF490011F4000F013BDB
:100F7000F9D041EA0C0195E70CEAD15392EA0C0F43
:100F800008D142027FF47DAF93EA0C0F7FF470AF7B
:100F9000084676E793EA0C0F04D14B023FF44CAFBE
:100FA00008466EE730F0004C18BF31F0004CCAD153
:100FB00030F000427FF45CAF31F000437FF43CAF8F
:100FC0005FE700BF4FF0FF3C06E000BF4FF0010CB1
:100FD00002E000BF4FF0010C4DF804CD4FEA400293
:100FE0004FEA41037FEA226C18BF7FEA236C11D0DD
:100FF00001B052EA530C18BF90EA010F58BFB2EB90
:10100000030088BFC81738BF6FEAE17018BF40F00F
:10101000010070477FEA226C02D15FEA402C05D1C3
:101020007FEA236CE4D15FEA412CE1D05DF8040B48
:10103000704700BF844608466146FFE70FB5FFF7DB
:10104000C9FF002848BF10F1000F0FBD4DF808ED93
:10105000FFF7F4FF0CBF012000205DF808FB00BF84
:101060004DF808EDFFF7EAFF34BF012000205DF8DE
:1010700008FB00BF4DF808EDFFF7E0FF94BF01202B
:1010800000205DF808FB00BF4DF808EDFFF7D2FF28
:1010900094BF012000205DF808FB00BF4DF808ED6B
:1010A000FFF7C8FF34BF012000205DF808FB00BF38
:1010B0004FEA4002B2F1FE4F0FD34FF09E03B3EB65
:1010C00012620DD94FEA002343F0004310F0004FA5
:1010D00023FA02F018BF404270474FF000007047FB
:1010E00012F1610F01D1420205D110F0004008BF9A
:1010F0006FF0004070474FF00000704738B5054D65
:10110000441E14F8011F01B938BD284601F040FA09
:10111000F7E700BF0038014013B5502101AA0820AD
:1011200001F084F80DF105025921082001F07EF844
:101130009DF804309DF805005B0003F0180303EBF5
:101140005010FFF79BFD084C084A206051210820F1
:1011500001F06CF806492068FFF7DCFCFFF7A8FFF8
:10116000044B186002B010BD9002002098020020CD
:101170000080B6439402002010B5094C01224FF4C0
:101180008071204601F098FB642001F05FFA204650
:10119000BDE8104000224FF4807101F08DBB00BF0C
:1011A0000008014007B50C210DF10502082001F0EF
:1011B0003DF801AA0D21082001F038F80E4ABDF9CA
:1011C000043012680D4953434FF47A7293FBF2F3E3
:1011D0000B4A126813441AB20A600A49C2F3072282
:1011E000DBB28A70CB7008498A70CB7007498A706D
:1011F000CB7003B05DF804FB94020020C80100200E
:1012000098020020E6000020B400002048000020E2
:1012100007B50E210DF10502082001F007F801AA1B
:101220000F21082001F002F80E4ABDF804301268C0
:101230000D4953434FF47A7293FBF2F30B4A126851
:1012400013440B4A5360C3F30722DBB20A714B719C
:1012500008490A714B7108490A714B7103B05DF876
:1012600004FB00BF94020020E6000020980200204A
:10127000C8010020B40000204800002007B5142158
:101280000DF10502082000F0D1FF01AA1521082068
:1012900000F0CCFF0E4ABDF9043012680D495343EB
:1012A0004FF47A7293FBF2F30B4A126813441AB2AA
:1012B0000A610A49C2F30722DBB28A72CB7208497B
:1012C0008A72CB7207490A714B7103B05DF804FB57
:1012D00094020020C801002098020020E6000020AF
:1012E000B40000204000002007B516210DF10502D2
:1012F000082000F09BFF01AA1721082000F096FFAC
:101300000E4ABDF9043012680D4953434FF47A7206
:1013100093FBF2F30B4A126813441AB24A610A496A
:10132000C2F30722DBB20A734B7308490A734B738B
:1013300007498A71CB7103B05DF804FB9402002069
:10134000C801002098020020E6000020B400002020
:101350004000002007B518210DF10502082000F01B
:1013600065FF01AA1921082000F060FF0E4ABDF9AF
:10137000043012680D4953434FF47A7293FBF2F331
:101380000B4A126813441AB28A610A49C2F307224F
:10139000DBB28A73CB7308498A73CB7307498A70AF
:1013A000CB7003B05DF804FB94020020C80100205C
:1013B00098020020E6000020B40000203800002041
:1013C00007B51E210DF10502082000F02FFF01AA2C
:1013D0001F21082000F02AFF0E4ABDF904301268D0
:1013E0000D4953434FF47A7293FBF2F30B4A1268A0
:1013F00013441AB24A620A49C2F30722DBB20A75E1
:101400004B7508498A70CB7007498A70CB7003B05E
:101410005DF804FB94020020C8010020980200201F
:10142000E6000020820000203000002007B52021C7
:101430000DF10502082000F0F9FE01AA2121082083
:1014400000F0F4FE0E4ABDF9043012680D49534312
:101450004FF47A7293FBF2F30B4A126813441AB2F8
:101460008A620A49C2F30722DBB28A75CB75084942
:101470000A714B7107490A714B7103B05DF804FBA7
:1014800094020020C801002098020020E6000020FD
:10149000820000203000002007B522210DF1050256
:1014A000082000F0C3FE01AA2321082000F0BEFEA0
:1014B0000E4ABDF9043012680D4953434FF47A7255
:1014C00093FBF2F30B4A126813441AB2CA620A4938
:1014D000C2F30722DBB20A764B7608498A71CB71D8
:1014E00007498A71CB7103B05DF804FB94020020B8
:1014F000C801002098020020E600002082000020A1
:101500003000002007B528210DF10502082000F069
:101510008DFE01AA2921082000F088FE0E4ABDF99F
:10152000043012680D4953434FF47A7293FBF2F37F
:101530000B4A126813441AB28A630A49C2F307229B
:10154000DBB28A77CB7708490A734B7307498A71F4
:10155000CB7103B05DF804FB94020020C8010020A9
:1015600098020020E60000208200002028000020D1
:10157000104AD2E900310B4411690B4451690B4404
:1015800091690B44516A0B44916A0B44D16A0B4434
:10159000916B0B440849D363C3F30722DBB281F894
:1015A000202081F8213005498A73CB7304498A7061
:1015B000CB707047C8010020E600002082000020A8
:1015C0002000002049F2E511474AD36B8B4262DCD0
:1015D00049F223018B4260DC48F661618B425EDC9C
:1015E00048F69F418B425CDC48F6DD218B425ADC99
:1015F00048F61B118B4258DC48F259718B4256DC7D
:1016000048F297518B4254DC48F2D5318B4252DC80
:1016100048F213218B4250DC48F251018B424EDCE0
:1016200047F68F618B424CDC47F6CD418B424ADC5A
:1016300047F60B318B4248DC47F649118B4246DCBA
:1016400047F287718B4244DC47F2C5518B4242DC42
:1016500047F203418B4240DCB3F5E14F3FDA46F6F7
:10166000FB418B423DDC46F677118B42D4BF002311
:1016700001235B00136400221C490B601C49DBB290
:1016800081F8222081F823301A490A744B741A49D0
:101690000A714B7170476423ECE75F23EAE75A2332
:1016A000E8E75523E6E75023E4E74B23E2E7462348
:1016B000E0E74123DEE73C23DCE73723DAE73223A8
:1016C000D8E72D23D6E72823D4E72323D2E71E2308
:1016D000D0E71923CEE71423CCE70F23CAE70A2368
:1016E000C8E70523C6E700BFC8010020B8010020F5
:1016F000E60000208200002020000020164B10B5DC
:101700001C68C4F589501030FFF7B8FA1349FFF789
:10171000BDFBFEF781FE0022114BFEF71FFDFFF718
:1017200083F9C0F30711092000F092FDC4F516609B
:10173000FFF7A4FA0949FFF7A9FBFEF76DFE0022A7
:10174000074BFEF70BFDFFF76FF9BDE81040C0F344
:1017500007110A2000F07CBD980200202506C13E3A
:101760000000E03F08B5FF21062000F071FDBDE854
:101770000840FF21072000F06BBD000070B50C246D
:10178000074D084E0A2000F061FF013C16F8011BCE
:1017900015F8010B00F05CFD14F0FF04F2D170BDF0
:1017A0000C000020000000200121084600F050BD80
:1017B0000221012000F04CBD1021012000F048BDA5
:1017C0000121022000F044BD0221084600F040BD86
:1017D0001021022000F03CBD0121032000F038BDA3
:1017E0000221032000F034BD1021032000F030BDA1
:1017F00008B50021012000F02BFD0021022000F09F
:1018000027FDBDE808400021032000F021BD0000B5
:1018100007B532210DF10502082000F007FD01AAED
:101820003321082000F002FDBDF80400B0F5FA4FA6
:1018300084BFC0F57F40FF30FEF7CCFD0EA3D3E997
:101840000023FEF741FEFFF70FF9FFF731FC0C49CB
:10185000C0F3072248640B49C3B281F8242081F801
:10186000253009498A74CB7408498A71CB7103B059
:101870005DF804FBAFF30080E17A14AE47E100406D
:10188000C8010020E6000020820000202000002087
:1018900007B52C210DF10502082000F0C7FC2D2111
:1018A00001AA082000F0C2FC4FF4BF72BDF804305A
:1018B00042F2107053434FF47A72B3FBF2F3584381
:1018C000C3F54E63043390FBF3F0FFF7D7F92049DB
:1018D000FFF7DCFAFEF7A0FD05F084F916A3D3E9C3
:1018E0000023FEF71BFF16A3D3E90023FEF736FC07
:1018F00002460B4600201749FEF710FF12A3D3E95A
:101900000023FEF729FC0022134BFEF727FCFFF70C
:10191000ABF8124B1860FFF7CBFB114B9864114BDF
:10192000C0B283F82600104B9870104B987003B02B
:101930005DF804FBAFF30080000000000068AA40DF
:10194000000000E0E1796B3F00000060661271402A
:1019500000401C460000F03F0000E03FB4010020C2
:10196000C8010020E60000205000002018000020E0
:1019700010B50C4C05212246082000F057FC2378B6
:10198000094903F002020A70084903F001030B70D1
:10199000074981F8272081F828300649CA700B7161
:1019A00010BD00BFB2010020B1010020B001002035
:1019B000E60000201800002008B5FFF7D9FF054B0E
:1019C0001B782BB14221BDE80840052000F040BC47
:1019D0004021F8E7B101002008B5FFF7C9FF054B2A
:1019E0001B782BB14121BDE80840052000F030BC38
:1019F0004021F8E7B00100204321052000F028BC79
:101A00004021052000F024BCF0B531488DB0FFF72F
:101A100075FB00252F4E304C304F56F8043B0135F6
:101A20002A46394654F82330684604F081F968465E
:101A3000FFF764FB092DF0D1E26B2949684604F0F9
:101A400077F96846FFF75AFB226C2649684604F08E
:101A50006FF96846FFF752FB234B1E683046FFF7CD
:101A600027FB0546FFF70AF901463046FFF750F815
:101A70001E49FFF757F9FFF71BFB80EAE073A3EB62
:101A8000E0732A461A49684604F052F96846FFF79F
:101A900035FB626C1749684604F04AF96846FFF75F
:101AA0002DFB154B15491878154B164A1B78002B42
:101AB0000CBF13460B46002818BF0A461249684659
:101AC00004F036F96846FFF719FB0DB0F0BD00BF12
:101AD000DB6F0008E0710008C8010020EE6F00080D
:101AE000FD6F00080B700008B40100200000C84220
:101AF0001770000828700008B1010020D46F00089A
:101B0000B0010020D76F00083870000873B50021BD
:101B10000DF10702082000F089FB9DF807301249FB
:101B2000C3F3C002114E124D124C0A60C3F3800180
:101B30003160C3F3400103F001032960236012B157
:101B40000D4804F0EDF8336813B10C4804F0E8F8E0
:101B50002B6813B10A4804F0E3F8236813B109486D
:101B600004F0DEF802B070BDAC010020A801002036
:101B7000A4010020A00100204B7000085370000851
:101B80005B7000086470000880B54FF0FF331522C9
:101B90001E491F4801F08BFF1E4D1F4E1F4F642131
:101BA000286802F093F8044650BBFFF7FBFAFFF7F2
:101BB0002FFBFFF763FBFFF797FBFFF7CBFBFFF76D
:101BC000FFFBFFF733FCFFF767FCFFF79BFCFFF71A
:101BD000CFFCFFF7F7FCFFF75BFEFFF719FEFFF7FF
:101BE000C7FE286802F095F8234602222146306895
:101BF00003F01EFD234602222146386803F018FD3B
:101C00004FF47A7002F01EF8C9E700BF6D7000084B
:101C1000500300209C020020A8020020A002002007
:101C200008B520224FF0FF330A490B4801F03FFF6F
:101C30000A4C4FF0FF31012003F0C4FC64212068FE
:101C400002F044F80028F4D1FFF7DEFE206802F02D
:101C500060F8EEE783700008500300209C0200202B
:101C60002DE9F0434FF0FF331A222E492E488BB056
:101C700001F01DFF2D4CDFF8B88041F2883001F0F3
:101C8000E1FF6421206802F021F80028F5D10DF170
:101C900004094B46274A52F8041B013058F821101A
:101CA000092843F8041BF6D1206802F032F8224BD1
:101CB0001B785BB9214B1B7843B9214B1B782BB99F
:101CC000204B1B6813B9204B1E6846B16421206865
:101CD00001F0FCFF0028D0D1FFF78AFD1DE0019F35
:101CE00001233D4659F8042F9742A8BF1746AA4240
:101CF000C8BF1E4603F10103C8BF1546092BF1D129
:101D00006421206801F0E2FF0028B6D1ED1B1E2DF2
:101D1000E2DD0E4B53F826309847206801F0F9FFBA
:101D2000ABE700BFA3700008500300209C02002016
:101D3000C801002028720008C6010020C50100204B
:101D4000C4010020C0010020BC0100200472000872
:101D50002DE9F04F4FF0FF331A22914991488BB093
:101D600001F0A5FE904E4FF4FA61012003F02AFC29
:101D7000642170B9306801F0A9FF0028F3D1FFF7A2
:101D80003FFEFF21002000F063FA306801F0C1FF40
:101D9000E9E7306801F09AFF0028E4D101AD2A4656
:101DA0008249834B51F8044B013053F824400928F1
:101DB00042F8044BF6D1D3F844807E4B4FF0010B30
:101DC000D3F800A0FFF7A2FE306801F0A2FF0022C6
:101DD0002846114641F2680741F2030C50F8044BC3
:101DE000BC4253DC6445C8BF4FF0000B0132092AE6
:101DF000F4D1714C00294DD02278002A4AD1012318
:101E00004FF0010B237000210122084640F6543C9C
:101E100055F8047BB7F52F6F47DB6745D8BF002225
:101E200001310929F4D1654D002841D029780029D4
:101E30003ED101234FF0010B2B70B8F5FA6F604FC4
:101E40003DDD3A78002A3AD101234FF0010B3B7077
:101E500050465C49FFF722F9DFF86C81DFF86C919E
:101E6000002834D0D8F80020002A30D101239B4626
:101E7000C8F80030D9F80020002A45D0504654490F
:101E8000FFF702F900283FD0002339E04FF0000BA4
:101E90000121ABE7227802F0FF0122B1BBF1000F74
:101EA000B1D00023ACE78B46ADE700220120B7E7B5
:101EB00029780029C1D0002ABFD00023BAE73A7898
:101EC000002AC5D0B8F5FA6FC2DC0023BDE7D8F808
:101ED000002052B150463B49FFF7CCF80028C9D04A
:101EE00000234FF0010BC8F8003050463849FFF787
:101EF000B7F80028BED0D9F80020002ABAD10123B3
:101F00004FF0010BC9F800306421306801F0DEFEAB
:101F100000287FF428AF2278002A3CD12A78002AB2
:101F200039D13A78002A36D1D8F80020002A32D1A7
:101F3000D9F80020BBF1000F1DD03B78002B7FF4B7
:101F40001EAFD8F80030002B7FF419AFD9F800305D
:101F5000002B7FF414AF23781BB12B78002B7FF478
:101F60000EAF237813B1FFF727FD0AE72B787BB17B
:101F7000FFF732FD05E7002A7FF403AFFFF7F8FC17
:101F8000144B1B7823B1144B1B78002B7FF4F9AE54
:101F9000FFF732FDF5E6BBF1000FCED1F1E600BF51
:101FA000BE700008500300209C0200202872000828
:101FB000C8010020B4010020C6010020C501002096
:101FC000C401002000007042C0010020BC010020BC
:101FD0000000A0C1B1010020B001002010B5314CBB
:101FE0004FF0FF3314223049204601F060FDFFF727
:101FF000C3F84FF0FF330B222C49204601F057FD68
:10200000FFF7BCFB4FF0FF3312222949204601F0B5
:102010004EFDFFF781F84FF0FF331122254920468E
:1020200001F045FDFFF76AFB4FF0FF33162222490E
:10203000204601F03CFDFFF795FB4FF0FF331622E1
:102040001E49204601F033FDFF21002000F000F979
:102050004FF0FF3312221A49204601F028FD19489B
:1020600001F0FCFD184B00211860184A184801F0D7
:10207000A5FD184B00211860174A184801F09EFD75
:10208000174B00211860174A174801F097FD174BAE
:1020900000211860164A174801F090FD164B186091
:1020A00010BD00BF50030020D9700008EE7000087A
:1020B000FA7000080D7100081F71000836710008E1
:1020C0004D7100084C7200089C020020C872000884
:1020D000891B0008AC020020A4720008211C000823
:1020E000A802002080720008611C0008A4020020E1
:1020F0005C720008511D0008A0020020102210B5DB
:1021000088B00DEB0200002103F00CFF184B194CB6
:102110009A69204642F020029A619A694FF48071D0
:1021200002F020020192019A9A6942F004029A6137
:102130009A6902F004020292029A9A6942F0080235
:102140009A619B69002203F008030393039B00F04C
:10215000B3FB4FF4807201230021CDE90423022355
:102160002046CDE9061304A900F0D2FA08B010BD4C
:10217000001002400008014008B50B480B4A0C4B08
:10218000C0E9002300234FF48042C0E90233C0E9D4
:102190000423C0E90633036200F03AFD18B1BDE83C
:1021A000084000F0D5B808BDB0020020005400403F
:1021B000A086010010B5044686B01022002102A8B6
:1021C00003F0B0FE2268154B9A4224D1144C4FF410
:1021D0004072A369134843F00803A361A36902A9ED
:1021E00003F008030093009B1223CDE9022303238D
:1021F000059300F08DFA0C4A536843F0E06343F016
:1022000002035360E36943F40013E361E36903F4F9
:1022100000130193019B06B010BD00BF00540040A5
:1022200000100240000C0140000001401FB54FF0BB
:10223000640C01230092CDE9013C0A4600FA03F147
:10224000024800F067FE05B05DF804FBB002002014
:102250007FB5102303228DF8083000238DF8090084
:102260008DF80A108DF80C008DF80D1002AC0820C6
:10227000802114F8015B5EB25B00DBB2002EB8BFB8
:1022800083F007030D4218BF83F0070301384FEABC
:102290005101F0D1013A12F0FF02E8D18DF80E3071
:1022A00064231021009303AA0323024800F058FD81
:1022B00004B070BDB002002010B590B0142200210F
:1022C00008A803F02FFE1422002101A803F02AFE23
:1022D00002244FF480330122CDE90D43CDE90623DA
:1022E0004FF4E01306A80A920F9300F057FF08B1CD
:1022F00072B6FEE70F23CDE901344FF480630390FB
:10230000CDE90430214601A801F00AF908B172B6FE
:10231000FEE710B010BD08B500F074F9FFF7CCFF70
:10232000FFF7ECFEFFF728FF00F0DAF801F01AFCE7
:10233000FFF754FE01F028FCFEE700000268034BA3
:102340009A4201D100F070B9704700BF002C0140E3
:1023500072B6FEE7114B07B59A690F2142F00102F0
:102360009A619A696FF0010002F001020092009AEE
:10237000DA6942F08052DA61DB69002203F08053AF
:102380000193019B00F086F9054A536823F0E0634E
:1023900043F00073536003B05DF804FB001002408B
:1023A0000000014070B51E4B88B09A6901A942F443
:1023B00000629A619B69064603F40063029303A8D6
:1023C000184D029B01F068F901F056F9164B2B608D
:1023D00040F2E733EB60154BB0FBF3F0002301381C
:1023E000686028462B61AB60AB6101F069FA044676
:1023F00080B9284601F070F9044658B9192000F058
:1024000079F90F2E09D822463146192000F042F9F9
:10241000074B1E60204608B070BD0124FAE700BFDC
:102420000010024004030020002C014040420F0035
:1024300020010020FEE7FEE7FEE7FEE7FEE770472B
:10244000014801F077B900BF0403002070B50D46C4
:1024500014460E46731B9C4201DC204670BDAFF350
:10246000008006F8010BF5E770B50D4614460E46E0
:10247000731B9C4201DC204670BD16F8010BAFF3C4
:102480000080F5E74FF0FF3070474FF40053002015
:102490004B60704701207047002070470B4A03468D
:1024A000116810B509B90A491160106809490A4C48
:1024B0000344091B8B4206D903F0E0FD0C230360A3
:1024C0004FF0FF3010BD1360FCE700BF4C0300204D
:1024D000D01E0020005000200004000070470000C3
:1024E00008B54FF416530A480A4AC0E900230023EE
:1024F0000C22C0E90233C0E905230361C36101F086
:10250000A7FA18B1BDE80840FFF722BF08BD00BF19
:10251000500300200038014010B5044686B0102258
:10252000002102A803F0FEFC2268174B9A4228D132
:1025300003F558439A69154842F480429A619A69B2
:1025400002A902F480420092009A9A6942F00402C1
:102550009A619B694FF4007203F004030193019B9D
:102560000223CDE902230323059300F0D1F84FF4B1
:10257000806100230548CDE9021302A9049300F00D
:10258000C7F806B010BD00BF003801400008014088
:1025900007B5074B8DF80710984206D16423012236
:1025A00004480DF1070101F082FA03B05DF804FB65
:1025B0000038014050030020FFF790FF0B480C4902
:1025C0000C4A002302E0D458C4500433C4188C428F
:1025D000F9D3094A094C002301E013600432A242F6
:1025E000FBD303F051FDFFF796FE7047000000207B
:1025F000840100202073000884010020CC1E0020EC
:10260000FEE70000074A08B51368032043F01003F3
:10261000136000F02DF80F20FFF7C4FEFFF79AFEBD
:10262000002008BD00200240034A044B11681B78BB
:102630000B441360704700BF980300201C0100206A
:10264000014B1868704700BF9803002038B5044656
:10265000FFF7F6FF0546631C1EBF044B1B78E4180A
:10266000FFF7EEFF431BA342FAD338BD1C01002045
:1026700007490302CA6803F4E06322F4E06212042B
:10268000120C134343F0BF6343F40033CB60704735
:1026900000ED00E0154B30B5DC68C4F30224C4F152
:1026A0000703251D042B28BF0423062D4FF0FF35FB
:1026B00094BF0024033C05FA03F321EA0303A54079
:1026C00022EA0502A340002843EA0203ACBF00F15E
:1026D0006040074A4FEA0313DBB2ABBF00F561402D
:1026E00000F00F0080F80033135430BD00ED00E01F
:1026F00014ED00E0002807DB01234109034A00F044
:102700001F00834042F82130704700BF00E100E025
:102710002DE9F74F00244FF00F0E2646DFF884C155
:10272000614B00F104080A6832FA06F502D103B0E1
:10273000BDE8F08F012505FA06F702EA070537EA3A
:10274000020276D14A68032A07D8013A022A00F227
:102750008380DFE802F091969C00122A00F09480BA
:1027600069D8112A00F08A80FF2D94BF8146C146A6
:102770004FEA8602D9F8007088BF203A0EFA02FAB2
:1027800027EA0A0704FA02F21743C9F80070D1F8E1
:10279000049019F0805F4CD0DCF8182026F0030775
:1027A00042F00102CCF81820DCF8182007F180472D
:1027B00002F00102019207F5803706F0030A019A40
:1027C0004FEA8A0ABA680EFA0AFB22EA0B0B374A6A
:1027D000904260D002F5806290425ED002F5806245
:1027E00090425CD002F58062904214BF0422032222
:1027F00002FA0AF242EA0B02BA609A6819F4801FE0
:1028000014BF2A43AA439A60DA6819F4001F14BF60
:102810002A43AA43DA605A6819F4003F14BF2A43D6
:10282000AA435A601A6819F4803F14BF2A43AA4386
:102830001A60013677E7DFF878904A450CD014D853
:10284000A9F580194A4507D009F570294A4503D0F2
:10285000A9F580194A4587D18A68D2B1012A4FF07B
:1028600008040CBF076147617EE7DFF848904A45DE
:10287000F2D009F58039EDE7CC6875E7CC6804340F
:1028800072E7CC6808346FE7CC680C346CE700243E
:102890006AE7042468E70022AAE70122A8E70222E7
:1028A000A6E700BF001002400004014000080140FC
:1028B00000002210000031100AB1016170470904C4
:1028C000FBE7016800224B6913F4806310D06FF4BA
:1028D00080634B612023026380F83D3080F83E2006
:1028E000036C80F83C2043F004030364012070472C
:1028F000184670472DE9F84606460F4691461D4694
:102900004FEA114A3368BAF1010F0CBF5C699C6948
:1029100027EA0404A4B2B4FA84F46409A14501D0FE
:10292000002025E06A1CEED0FFF78AFE089BC01A43
:10293000A84201D8002DE5D13368BAF1010F0CBFD0
:102940005B699B6927EA03039BB2B3FA83F35B09D4
:102950009945D7D1002320220120336386F83D20FA
:1029600086F83E30326C86F83C3042F02002326409
:10297000BDE8F8862DE9F04104460F461646984614
:102980002568686927EA000080B2C0B16B695A0502
:1029900017D52B68202243F400732B606FF48063FB
:1029A0006B610023236384F83D2084F83E30236C60
:1029B00043F0040323640023012084F83C30BDE885
:1029C000F081731CDDD0FFF73BFEA0EB0800B042A6
:1029D00001D8002ED4D123685A6927EA020292B2A4
:1029E000002ACDD000232022236384F83D2084F8E0
:1029F0003E30236C1343DDE770B504460D461646A2
:102A000023685B691B0601D500201EE02046FFF706
:102A100058FFC8B96A1CF3D0FFF712FE801BA8420A
:102A200001D8002DECD123685B6913F08003E7D156
:102A30002022236384F83D2084F83E30226C84F801
:102A40003C3042F020022264012070BD2DE9FF4796
:102A50009A46DDE90C78036815461A680E4642F47A
:102A600080621A601A684FF0011142F480721A6095
:102A70003B460022CDF800800446FFF73BFF236869
:102A800048B11B68DB0548BF4FF400734FF00300EB
:102A900048BF236421E05FFA86F906F0FE061E6156
:102AA0003A46434620462A49FFF764FFA0B9236807
:102AB00003905A69394603929B6942460393204624
:102AC000039BFFF799FF58B1236C042B01BF2268C9
:102AD000136843F400731360012004B0BDE8F0876D
:102AE000BAF1010F23681AD1EDB2424639462046A9
:102AF0001D61FFF781FF02460028E5D121682046CD
:102B00000B6843F480730B603B464FF00111CDF826
:102B10000080FFF7EFFE226860B11368B2E72A0A6F
:102B20001A61394642462046FFF766FF0028CBD19E
:102B30002368D9E749F001031361204643463A462A
:102B40000349FFF717FF003818BF0120C5E700BF92
:102B50000200010070B504460D46164623685B6905
:102B60005B0701D500201EE02046FFF7AAFEC8B98A
:102B70006A1CF3D0FFF764FD801BA84201D8002D2A
:102B8000ECD123685B6913F00403E7D120222363AF
:102B900084F83D2084F83E30226C84F83C3042F0CA
:102BA00020022264012070BD70B504460D46164611
:102BB00021684B6913F0400301D0002011E04A69FD
:102BC000D2060FD56FF010024A612022236384F8E9
:102BD0003D2084F83E30236C23640023012084F8D8
:102BE0003C3070BDFFF72CFD801BA84201D8002DA2
:102BF000DED123685B6913F04003D9D1202223631F
:102C000084F83D2084F83E30236C1343E4E7000051
:102C100070B5044608B9012070BD90F83D3003F04E
:102C2000FF021BB980F83C20FFF7C4FA242384F884
:102C30003D3023681A6822F001021A601A6842F4D3
:102C400000421A601A6822F400421A6000F004FD83
:102C50003F4B65689D4294BF3E4B3F4B98428CBFB3
:102C600000230123002BD6D1394E3C4BB542B0FB9B
:102C7000F3F388BF4FF496762268516821F03F0144
:102C800041EA030182BF73434FF47A76B3FBF6F354
:102C90005160116A013321F03F010B431362D16986
:102CA000431E2B4821F44F41854221F0FF0132D8C9
:102CB0006D00B3FBF5F340F6FC700133034242D0E4
:102CC000C3F30B031943D1611168D4E9073021F034
:102CD000C00103430B4313609168D4E9030321F45B
:102CE0000341034321F0FF010B439360D168D4E912
:102CF000053021F0FF0103430B43D360136800202C
:102D000043F0010313602023206484F83D302063E6
:102D100084F83E0080E7A06850B905EB4505B3FB99
:102D2000F5F30133C3F30B037BB143F40043C9E76D
:102D300019206843B3FBF0F30133C3F30B0323B152
:102D400043F44043BEE70423BCE70123BAE700BFD6
:102D5000A08601007F841E00FF083D0040420F0056
:102D60002DE9F043044685B098460D4691460C9FE8
:102D7000FFF766FC94F83D300646202B04D0022570
:102D8000284605B0BDE8F0830090192301222046B3
:102D90005C49FFF7AFFD0028F1D194F83C30012BDE
:102DA000EDD00123216884F83C300B68DA075EBF60
:102DB0000B6843F001030B600B6823F400630B60A6
:102DC000212384F83D30102384F83E30002323640F
:102DD000A4F82A80638DC4F8249023854A4BE362CB
:102DE000E36A082B04D0012B02D013F5803F04D1F5
:102DF0000B6843F480730B6002E0236B122BF7D057
:102E000000223B464FF0011120460096FFF772FD6D
:102E1000226840B11368DB0501D40125B0E74FF407
:102E200000732364F9E72369B3F5804F21D105F0DE
:102E3000FE05156133463A4620463449FFF79AFDB0
:102E400005460028E9D1236803905A6903929B69DB
:102E50000393039B238DF3B921680A6842F400723F
:102E60000A60202284F83C3084F83D2084F83E300B
:102E700086E7EB1103F0060343F0F00313612046ED
:102E800033463A462249FFF775FD0028C5D123682D
:102E9000EDB21D61CEE7324639462046FFF7ACFD64
:102EA00040B1236C042BB8D12268136843F400733B
:102EB0001360B2E7636A20681A4612F8011B0161C9
:102EC0006262628D013A92B26285228DD0F814C09E
:102ED000511E89B21CF0040F21850AD049B15978DE
:102EE000023301616362638D023A013B9BB26385E9
:102EF0002285324639462046FFF72CFE0028A9D00D
:102F0000CFE700BF020010000000FFFF0200010039
:102F1000080001002DE9F04399460023044689B0DA
:102F200003930D469046129FFFF78AFB94F83D30BD
:102F30000646202B04D00225284609B0BDE8F083C0
:102F400000901923012220469049FFF7D3FC002866
:102F5000F1D194F83C30012BEDD00123206884F8A6
:102F60003C3003682946DB0758BF036842465CBF14
:102F700043F001030360036823F40063036022232A
:102F800084F83D30402384F83E3000232364109BB6
:102F900020466362BDF844306385638D23857C4B96
:102FA000E3624B46CDE90076FFF750FD0546002869
:102FB00040F0BA80228D2368C2B904905A69049205
:102FC0009A690492049A1A6842F400721A60DFF84F
:102FD000C481DFF8C491238D002B37D1202284F8DF
:102FE0003C3084F83D2084F83E30A5E7012A11D119
:102FF0001A6822F480621A6072B6236805905A69D2
:1030000005929A690592059A1A6842F400721A604C
:1030100062B6DCE7022A1A680ED142F400621A6036
:1030200072B6236806905A6906929A690692069AC1
:103030001A6822F48062EAE742F480621A6007901C
:103040005A6907929B690793079BC0E7032B78D8BF
:10305000012B15D1324639462046FFF7A5FD002841
:1030600062D123681A69636A1A70636A0133636202
:10307000238D013B2385638D013B9BB26385AAE7CA
:10308000022B4FF000023B4641462046009618D1E5
:10309000FFF730FC002847D172B623681A6842F463
:1030A00000721A601A69636A1A70636A0133636294
:1030B000238D013B2385638D013B9BB2638562B603
:1030C000CFE7FFF717FC00282ED12268136823F4FE
:1030D0008063136072B646F2A81123681A69636AA6
:1030E0001A70626A531C6362238D013B2385638DD2
:1030F000013B9BB26385D9F80030B3FBF1F3232188
:103100004B430393039B013B0393039B73B920221F
:10311000236384F83D2084F83E30226C42F0200284
:10312000226462B684F83C30012505E723685969BA
:103130004907E7D5196841F4007119601B6953709C
:10314000B3E7324639462046FFF72EFD0028EBD183
:1031500023681A69636A1A70628D616A013A92B2D1
:103160004B1C628522686362238D5069013B9BB2D0
:10317000400723857FF52FAF032B02BF136823F48D
:103180008063136013694B706FE700BF020010008B
:103190000000FFFF04000100180100202DE9F341A9
:1031A000054638B30368DB0710D42B689F075ED44D
:1031B0002B68190700F195802B685A0700F1C18030
:1031C000EB69002B40F02C81002029E0904C6368D3
:1031D00003F00C03042B07D0636803F00C03082BE7
:1031E0000AD16368DE0307D523689C03DDD56B68CD
:1031F000002BDAD1012013E06B68B3F5803F12D1C8
:10320000236843F480332360FFF71AFA06462368E5
:103210009803CAD4FFF714FA801B6428F7D9032057
:1032200002B0BDE8F0819BB9236823F480332360AA
:10323000236823F480232360FFF702FA06462368FD
:103240009903B2D5FFF7FCF9801B6428F7D9E6E7AC
:10325000B3F5A02F236803D143F480232360CFE785
:1032600023F480332360236823F48023CBE7684C66
:10327000636813F00C0F07D0636803F00C03082B8E
:1032800010D16368DA030DD423689B0702D52B693C
:10329000012BAFD123686A6923F0F80343EAC20324
:1032A000236085E72A695B4B6AB101221A60FFF748
:1032B000C7F9064623689F07ECD4FFF7C1F9801BC6
:1032C0000228F7D9ABE71A60FFF7BAF90646236878
:1032D00098077FF56DAFFFF7B3F9801B0228F6D989
:1032E0009DE7AA694A4E4B4BE2B10122C3F8802404
:1032F000FFF7A6F90446736A9B070DD54FF4FA52FF
:10330000454B1B68B3FBF2F3019300BF019B5A1EB0
:103310000192002BF9D14FE7FFF792F9001B022829
:10332000E9D97CE7C3F88024FFF78AF90446736A79
:103330009F077FF541AFFFF783F9001B0228F6D9FD
:103340006DE7334CE369D80024D40127E36943F0E7
:103350008053E361E36903F080530093009B2F4E99
:103360003368D90518D5EB68012B26D1236A43F0C1
:1033700001032362FFF764F941F288380646236AA5
:103380009B073FD5002F3FF41BAFE36923F0805329
:10339000E36115E70027E2E7336843F480733360A5
:1033A000FFF74EF980463368DA05DCD4FFF748F9B9
:1033B000A0EB08006428F6D931E7ABB9236A41F2E3
:1033C000883823F001032362236A23F00403236275
:1033D000FFF736F90646236A9807D3D5FFF730F989
:1033E000801B4045F7D91AE7052B236A03D143F028
:1033F00004032362BAE723F001032362236A23F064
:103400000403B6E7FFF71CF9801B4045B7D906E770
:1034100000100240000042421801002000700040ED
:103420002A4C626802F00C02082A3ED00022022BCD
:10343000274B1A662CD1FFF703F90646236899013A
:1034400020D42B6AB3F5803F05D16268A96822F4C5
:1034500000320A436260696A62680B4322F47412A4
:103460001343012263601A4B1A66FFF7E9F8054619
:1034700023689A013FF5A8AEFFF7E2F8401B022847
:10348000F6D9CCE6FFF7DCF8801B0228D6D9C6E6D1
:10349000FFF7D6F8054623689B017FF595AEFFF749
:1034A000CFF8401B0228F6D9B9E6012B3FF4A2AEB3
:1034B00060682B6A00F480329A427FF49BAE6B6A9C
:1034C00000F47010C01A18BF0120A9E600100240D5
:1034D000000042420D4A536803F00C01082912D142
:1034E0000B48C3F38341DB03405C09D55368094AA9
:1034F000C3F340435043084AD35CB0FBF3F070473A
:10350000064B584370470348704700BF0010024005
:103510000673000800127A000473000800093D00D9
:103520002DE9F0410D46044610B90120BDE8F081B7
:10353000444A136803F007038B4228D321688E079F
:1035400030D4CA0743D43F4A136803F00703AB42A1
:1035500065D822683C4D12F0040F6CD1130706D5D4
:103560006B68226923F4605343EAC2036B60FFF780
:10357000B1FF6B68354AC3F30313D35CD840344BB7
:103580001860344B1868FEF70DFF0020CEE7136873
:1035900023F007030B431360136803F007038B4208
:1035A000C3D1CBE7284B11F0040F1EBF5A6842F479
:1035B000E0625A60080742BF5A6842F460525A609B
:1035C0005A68A06822F0F00202435A60B9E76268C4
:1035D0001D4E012A33681AD113F4003FA5D0736839
:1035E00041F2883823F0030313437360FFF728F890
:1035F00007467368626803F00C03B3EB820FA2D036
:10360000FFF71EF8C01B4045F3D903208EE7022ABE
:1036100002D113F0007FE1E713F0020FDEE7136839
:1036200023F007032B431360136803F00703AB4237
:103630007FF47BAF8DE76B68E16823F4E0630B43B5
:103640006B608BE70020024000100240F47200081B
:103650001801002020010020044B054A5B68C3F3D9
:103660000223D35C034A1068D84070470010024020
:10367000EC72000818010020044B054A5B68C3F394
:10368000C223D35C034A1068D84070470010024040
:10369000EC720008180100200F2303600B4B5A68DE
:1036A00002F0030242605A6802F0F00282605A6837
:1036B00002F4E062C2605B68DB0803F4E06303616C
:1036C000034B1B6803F007030B60704700100240B8
:1036D000002002407047000090F83D30012B20D1BF
:1036E000022380F83D300368DA6842F00102DA60B4
:1036F0000D4A93420AD0B3F1804F07D0A2F594321D
:10370000934203D002F58062934204D19A6802F09A
:103710000702062A03D01A6842F001021A6000204C
:1037200070470120704700BF002C01407047704770
:1037300070477047036870B5DD681E690446B107BD
:103740000DD5AA070BD56FF002021A61012202778C
:103750009B699B0769D0FFF7EAFF00232377710776
:1037600010D56A070ED56FF00402236820461A614F
:10377000022222779B6913F4407F5CD0FFF7D7FFCA
:103780000023237733070FD528070DD56FF00802E4
:10379000236820461A6104222277DB69990750D0FA
:1037A000FFF7C5FF00232377F20610D5EB060ED5F1
:1037B0006FF01002236820461A6108222277DB6925
:1037C00013F4407F43D0FFF7B2FF00232377F007C5
:1037D00008D5E90706D56FF00102236820461A6173
:1037E000FEF7ACFD320608D52B0606D56FF0800239
:1037F000236820461A6100F090F8700608D5690623
:1038000006D56FF04002236820461A61FFF791FF4A
:10381000B20622D5AB0620D56FF0200223682046E1
:10382000BDE870401A6100F077B8FFF77FFF2046CF
:10383000FFF77EFF91E7FFF779FF2046FFF778FF5C
:103840009EE7FFF773FF2046FFF772FFAAE7FFF737
:103850006DFF2046FFF76CFFB7E770BD174A03689E
:1038600090420AD0B0F1804F07D0A2F59432904236
:1038700003D002F58062904207D14A6823F07003BA
:103880001343CA6823F4407313434A6923F0800347
:10389000134303608B68C3620B688362074B9842D3
:1038A00004BF0B690363012343610369DB0742BF64
:1038B000036923F001030361704700BF002C01403E
:1038C00010B5044630B390F83D3003F0FF021BB949
:1038D00080F83C20FFF7FEFE0223206884F83D308C
:1038E000211DFFF7BBFF0123002084F8463084F838
:1038F0003E3084F83F3084F8403084F8413084F81A
:10390000423084F8433084F8443084F8453084F8F9
:103910003D3010BD0120FCE770477047026802F19E
:103920000C0353E8003F23F490730C3242E800315B
:1039300002680029F2D102F1140353E8003F23F09A
:10394000010302F1140C4CE800310029F3D1036BA0
:10395000012B0BD102F10C0353E8003F23F01003BD
:1039600002F10C0C4CE800310029F3D1202380F83F
:10397000423000230363704710B504460368C168F2
:103980001A6922F440520A431A6182680069D968B0
:103990000243606921F4B05121F00C0102430A4353
:1039A000DA605A69A16922F440720A435A610E4AE8
:1039B000934215D1FFF760FE1923434362682068E4
:1039C0009200B3FBF2F36422B3FBF2F102FB11337A
:1039D0001B013233B3FBF2F303EB0113836010BD21
:1039E000FFF73AFEE8E700BF00380140F7B50546AB
:1039F0000C4617461E462A68136834EA030301D1B1
:103A0000002021E0701CF7D0FEF71AFEC01B864292
:103A10001CD3DEB12B68DA685107ECD5802CEAD0D4
:103A2000402CE8D01A681207E5D5002401941A68E2
:103A3000284601925B680193019BFFF76FFF082303
:103A400001206B6485F8404003B0F0BD0320FBE724
:103A500010B5044648B390F8413003F0FF021BB99B
:103A600080F84020FEF758FD2423226884F8413076
:103A7000D368204623F40053D360FFF77DFF23680B
:103A800000201A6922F490421A615A6922F02A022F
:103A90005A61DA6842F40052DA602023606484F8E4
:103AA000413084F84230606310BD0120FCE72DE90D
:103AB000F843984690F841300446202B0E461746AE
:103AC0003FD100293FD0002A3DD021230025456465
:103AD00080F84130FEF7B4FDA3688146B3F5805FFE
:103AE000A784E78403D123690BB935461E46E38CCE
:103AF0009BB253B943464A4640212046FFF776FF22
:103B0000202350B984F841300AE043464A468021D8
:103B10002046FFF76BFF28B12023032084F84130B3
:103B2000BDE8F88322684EB935F8023BC3F30803B9
:103B30005360E18C013989B2E184D8E716F8013B82
:103B4000F6E70220ECE70120EAE708B54FF0E023B2
:103B50001B6901F04DFC012803D0BDE8084000F0CE
:103B6000F9BA08BDEFF305832BB9064B186828B9DD
:103B700001221A6070476FF0050070474FF0FF3068
:103B8000704700BFEC0A002010B5EFF305845CB964
:103B9000084B1A68012A0AD1074AD47702221A6010
:103BA00001F088F9204610BD6FF00500FBE74FF0EB
:103BB000FF30F8E7EC0A002000ED00E0F0B5144615
:103BC000002287B00B460592EFF30582FAB9F0B1F7
:103BD00054B3A56925B1691E372902D9002017E021
:103BE00018256268D207F9D466699EB1B2082168C7
:103BF000D4E9027C87B1BCF1A70F08D9246934B19C
:103C00002EB1CDE90147009501F0EEF80590059839
:103C100007B0F0BD8022EAE7BCF1000FF7D12469BC
:103C2000002CF4D10C4601E01825802205A9CDE92D
:103C3000005192B2214601F00FF901281CBF002368
:103C40000593E4E708B5EFF3058222B908B101F066
:103C50009BFA002008BD6FF00500FBE7F8B50546AC
:103C6000EFF3058717B100242046F8BD20B346685E
:103C70003307F8D4D0E9021306F0010699B14F2BAF
:103C8000F1D9BEB1042000F0DAFC04460028EAD0E5
:103C900037462D682946204600F0FCFE002FE3D071
:103CA00044F00104E0E7002BDDD12EB1042000F048
:103CB000FAFCEAE70120E6E7012000F0F4FC044604
:103CC0000028D0D0002DE5D00026E1E738B5034626
:103CD0000C4620F0010003F00102EFF3058595B9D1
:103CE000012B13D962B100F0B3FE012801D10020ED
:103CF00038BD002C14BF6FF001006FF00200F7E731
:103D000000F0E9FDF1E76FF00500F1E76FF0030067
:103D1000EEE7024608B520F0010002F00103EFF3E0
:103D2000058179B9012A10D93BB100F09DFC012829
:103D30000CBF00206FF0020008BD1A46194600F0C3
:103D4000CCFBF4E76FF00500F6E76FF00300F3E754
:103D5000034B0360034B0B6080231360704700BF6D
:103D6000440A002044080020034B0360034B0B600F
:103D70004FF48073136070479C0700209C03002061
:103D800010B5104B1A461B688342FBD354681119B7
:103D9000884201BF41681046091951604468011901
:103DA0008B420CD1084909688B4203D059682144E1
:103DB000416019689042016018BF106010BD19463B
:103DC000F8E700BF080B0020040B00202DE9F041AC
:103DD000044601F0BFF84249424D0B680BBB424A12
:103DE00056071FBFD01D20F0070002F54062131ACE
:103DF0000CBF4FF440630246002013443B4E083B87
:103E000023F0070370603260C3E90000981AC2E92A
:103E100000300B60364B1860364B18604FF0004393
:103E20002B602E68264255D1002C46D004F10803A1
:103E300060071CBF23F007030833002B4AD02D4F27
:103E40003C689C4246D3294A15686868984204D267
:103E5000D5F800C0BCF1000F15D10968A94239D0CE
:103E60002968D2F800801160C21A102A12D9E81805
:103E700041070BD04FF0500383F31188BFF36F8FCE
:103E8000BFF34F8FFEE72A466546DEE742606B6070
:103E9000FFF776FF00236A681549A41A1643164AED
:103EA00008682B601368844203F101033C6038BF4B
:103EB0000C606E6008F10804136001F0F1F863070C
:103EC0000AD04FF0500383F31188BFF36F8FBFF315
:103ED0004F8FFEE70024F0E72046BDE8F08100BFE9
:103EE000040B0020F00A0020100B0020080B00201B
:103EF000FC0A0020000B0020F80A002010B5044640
:103F000090B31A4A50F8043C1268134208D14FF09B
:103F1000500383F31188BFF36F8FBFF34F8FFEE71A
:103F200050F8081C41B14FF0500383F31188BFF3E0
:103F30006F8FBFF34F8FFEE723EA020340F8043C84
:103F400001F008F80A4A54F8043C1168A4F108008A
:103F50000B441360FFF714FFBDE81040054A1368D7
:103F60000133136001F09CB810BD00BFF00A0020BF
:103F7000000B0020F40A00204FF0FF3200F108038C
:103F8000C0E90223436003610023036070470023FC
:103F90000361704743689A684B608A60516099601A
:103FA0000368086101330360704730B50C68631C17
:103FB0000AD103695A684A6091608B60596003684E
:103FC00008610133036030BD00F1080213465268F6
:103FD0001568A542FAD9EDE70369D0E901128A60B4
:103FE00051605968814208BF5A60002202611A6814
:103FF000013A1A601868704706480068006880F344
:10400000088862B661B6BFF34F8FBFF36F8F00DFD2
:1040100000BF000008ED00E0002382B001930D4BCB
:104020001B68013308D04FF0500383F31188BFF3AE
:104030006F8FBFF34F8FFEE74FF0500383F311886C
:10404000BFF36F8FBFF34F8F019B002BFCD002B0EB
:10405000704700BF240100204FF0807340F8043CFB
:10406000054B21F0010140F8081C40F80C3C40F8D9
:10407000202C4038704700BF1940000800000000A5
:10408000074B19680868B0E8F00F80F30988BFF3A0
:104090006F8F4FF0000080F311884EF00D0E7047C7
:1040A000501C00204FF0500383F31188BFF36F8F33
:1040B000BFF34F8F0A4A13680133012B13600ED1EF
:1040C0004FF0E023D3F8043DDBB243B14FF050038F
:1040D00083F31188BFF36F8FBFF34F8FFEE77047F5
:1040E00024010020084A136843B94FF0500383F3BA
:1040F0001188BFF36F8FBFF34F8FFEE7013B136053
:104100000BB983F3118870472401002000000000E0
:10411000EFF30980BFF36F8F0D4B1A6820E9F00FA2
:1041200010602DE908404FF0500080F3118801F035
:104130004FF84FF0000080F31188BDE8084019687F
:104140000868B0E8F00F80F30988BFF36F8F7047FD
:10415000501C002008B54FF0500383F31188BFF3C3
:104160006F8FBFF34F8F00F003FF28B14FF0E023B4
:104170004FF08052C3F8042D002383F3118808BD4B
:104180004FF0E02200234FF47A7113619361044BE6
:104190001B68B3FBF1F3013B5361072313617047C5
:1041A0001801002013B5274B1A78D2B20192FF22D2
:1041B0001A701B78244ADBB28DF803309DF8033067
:1041C00003F0500313700723204A13609DF8031077
:1041D000136809060AD4032B11D04FF0500383F360
:1041E0001188BFF36F8FBFF34F8FFEE7013B136062
:1041F0009DF803305B00DBB28DF80330E6E74FF447
:1042000040731360019B0F4ADBB213704FF0E02341
:104210000024D3F8202D42F47002C3F8202DD3F8E7
:10422000202D42F07042C3F8202DFFF7A9FF084B64
:104230001C60FFF7E1FE00F0CBFF2046FFF7ECFE2D
:1042400002B010BD00E400E0141700201017002099
:1042500024010020EFF305830F2B0ED9114A9B5C3C
:10426000114A12789A4208D94FF0500383F311880B
:10427000BFF36F8FBFF34F8FFEE74FF0E0230B4A82
:10428000D3F80C3D126803F4E063934208D94FF071
:10429000500383F31188BFF36F8FBFF34F8FFEE797
:1042A000704700BFF0E300E0141700201017002053
:1042B00010B50446FFF7F6FEA46BFFF713FFB4FA40
:1042C00084F0400910BD70B51646026C0446856B3B
:1042D00042B906689EB9806801F0D8F8A660013539
:1042E000A56370BD6EB9406801F0F5FE6368226C8D
:1042F0001344A2686360934224BF23686360002074
:10430000EDE7C06801F0E7FE226CE36851429B1ABA
:104310002268E36093423EBFA3685B18E360022E0D
:10432000EDD10DB1013DEAE72846D8E703461A6C06
:10433000084610B462B1DC68996814448C4228BF06
:104340001968DC6028BFD960D96810BC01F0C3BE11
:1043500010BC704770B50446FFF7A4FE94F84550B2
:1043600004F124066DB2002D01DD636AB3B9FF23A9
:1043700084F84530FFF7B6FEFFF794FE94F84450FA
:1043800004F110066DB2002D01DD23697BB9FF2316
:1043900084F84430BDE87040FFF7A4BE304600F01A
:1043A00093FF08B101F018F8013D6DB2DBE730462C
:1043B00000F08AFF08B101F00FF8013D6DB2E2E7AD
:1043C00038B50D46044640B94FF0500383F31188C9
:1043D000BFF36F8FBFF34F8FFEE7FFF763FED4E9A4
:1043E0000F314B432268D0185B1AA0606260002036
:1043F0001A44FF23A063E26084F8443084F8453017
:10440000A5B9236973B104F1100000F05DFF48B154
:104410004FF0E0234FF08052C3F8042DBFF34F8FCD
:10442000BFF36F8FFFF75EFE012038BD04F110006F
:10443000FFF7A2FD04F12400FFF79EFDF2E737B578
:104440000D461C4640B94FF0500383F31188BFF36B
:104450006F8FBFF34F8FFEE743B94FF0500383F3E5
:104460001188BFF36F8FBFF34F8FFEE74AB191B949
:104470004FF0500383F31188BFF36F8FBFF34F8F5B
:10448000FEE741B14FF0500383F31188BFF36F8F04
:10449000BFF34F8FFEE750230193019B502B08D0B1
:1044A0004FF0500383F31188BFF36F8FBFF34F8F2B
:1044B000FEE70121002D08BF2246C4E90F0584F85C
:1044C000461020462260019BFFF77AFF20469DF8A8
:1044D000183084F84C3003B030BD2DE9FF410F4651
:1044E0001E460446019240B94FF0500383F31188F1
:1044F000BFF36F8FBFF34F8FFEE751B9036C43B12A
:104500004FF0500383F31188BFF36F8FBFF34F8FCA
:10451000FEE7022E0BD1E36B012B08D04FF05003C6
:1045200083F31188BFF36F8FBFF34F8FFEE700F067
:104530005FFF054620B300254FF00008FFF7B2FDEE
:10454000A26BE36B9A4227D2324639462046FFF7E8
:10455000BAFE636A1BB104F1240000F0B5FE48B155
:104560004FF0E0234FF08052C3F8042DBFF34F8F7C
:10457000BFF36F8FFFF7B6FD012004B0BDE8F081F7
:10458000019B002BD8D04FF0500383F31188BFF369
:104590006F8FBFF34F8FFEE7022ED5D0019B1BB963
:1045A000FFF7A0FD0020E8E715B902A800F0CCFE57
:1045B000FFF798FD00F0CEFCFFF774FD94F844304F
:1045C000FF2B08BF84F8448094F84530FF2B08BFC8
:1045D00084F84580FFF786FD01A902A800F0C0FE1F
:1045E00038BBFFF75FFDA26BE36B9A420ED1FFF77A
:1045F00079FD019904F1100000F02CFE2046FFF730
:10460000A9FE00F04DFD48B1012597E7FFF76AFDCF
:104610002046FFF79FFE00F043FDF5E74FF0E02353
:104620004FF08052C3F8042DBFF34F8FBFF36F8F4D
:10463000EAE72046FFF78EFE00F032FDB2E70022E7
:1046400013B50B46009011460120FFF7F8FE044613
:1046500038B100231A46194683600360C360FFF730
:104660003CFF204602B010BD38B5044640B94FF0BB
:10467000500383F31188BFF36F8FBFF34F8FFEE7B3
:10468000856800F0AFFE85420BD1E368013BE36033
:104690000BB1012038BD1A4619462046FFF71DFF11
:1046A000F7E70020F6E770B506465020FFF78EFBCF
:1046B000044698B10025012180F84650C0E90F1545
:1046C0000060FFF77DFE2B462A462946204684F8E7
:1046D0004C60A5602560E560FFF7FFFE204670BDD9
:1046E0002DE9F843894617461E46044640B94FF067
:1046F000500383F31188BFF36F8FBFF34F8FFEE733
:1047000051B9036C43B14FF0500383F31188BFF3E9
:104710006F8FBFF34F8FFEE7022E0BD1E36B012BA0
:1047200008D04FF0500383F31188BFF36F8FBFF3AE
:104730004F8FFEE7FFF78EFDEFF311884FF0500328
:1047400083F31188BFF36F8FBFF34F8FA26BE36BBF
:104750009A4201D3022E1ED194F845503246494662
:1047600020466DB2A36BFFF7AEFD6B1C0ED1636AE2
:104770003BB104F1240000F0A7FD10B10FB10123FB
:104780003B60012088F31188BDE8F88301356DB2E4
:1047900084F84550F5E70020F4E72DE9FF410E4687
:1047A0000446019240B94FF0500383F31188BFF3E0
:1047B0006F8FBFF34F8FFEE751B9036C43B14FF0DA
:1047C000500383F31188BFF36F8FBFF34F8FFEE762
:1047D00000F00EFE054618B300254FF00008FFF765
:1047E00061FCA76B47B331462046013FFFF79EFDB2
:1047F000A763236973B104F1100000F065FD48B1AF
:104800004FF0E0234FF08052C3F8042DBFF34F8FD9
:10481000BFF36F8FFFF766FC012004B0BDE8F081A5
:10482000019B002BD9D04FF0500383F31188BFF3C5
:104830006F8FBFF34F8FFEE7019B1BB9FFF752FC51
:104840000020EAE715B902A800F07EFDFFF74AFC58
:1048500000F080FBFFF726FC94F84430FF2B08BFE4
:1048600084F8448094F84530FF2B08BF84F84580D5
:10487000FFF738FC01A902A800F072FD00BB20463A
:10488000FFF716FDB0B1019904F1240000F0E2FC3D
:104890002046FFF75FFD00F003FC48B94FF0E0232E
:1048A0004FF08052C3F8042DBFF34F8FBFF36F8FCB
:1048B000012594E72046FFF74DFD00F0F1FBF7E7F7
:1048C0002046FFF747FD00F0EBFB2046FFF7F0FC2A
:1048D0000028EDD0B4E7F0B585B00446019140B9A9
:1048E0004FF0500383F31188BFF36F8FBFF34F8FE7
:1048F000FEE7056C45B14FF0500383F31188BFF319
:104900006F8FBFF34F8FFEE700F072FD064620B3B6
:104910002E460027FFF7C6FBA36B53B3013BA363EF
:10492000236813B900F042FEA060236973B104F15B
:10493000100000F0C9FC48B14FF0E0234FF0805266
:10494000C3F8042DBFF34F8FBFF36F8FFFF7CAFB80
:10495000012005B0F0BD3546DBE7019B002BFAD006
:104960004FF0500383F31188BFF36F8FBFF34F8F66
:10497000FEE7019B53B9002D66D04FF0500383F33F
:104980001188BFF36F8FBFF34F8FFEE716B902A8F0
:1049900000F0DAFCFFF7A6FB00F0DCFAFFF782FB81
:1049A00094F84430FF2B08BF84F8447094F84530E5
:1049B000FF2B08BF84F84570FFF794FB01A902A8FC
:1049C00000F0CEFC50BB2046FFF772FC00B323681A
:1049D0003BB9FFF767FBA06800F01AFD0546FFF73B
:1049E00081FB019904F1240000F034FC2046FFF71C
:1049F000B1FC00F055FB48B94FF0E0234FF0805276
:104A0000C3F8042DBFF34F8FBFF36F8F012681E7EB
:104A10002046FFF79FFC00F043FBF7E72046FFF737
:104A200099FC00F03DFB2046FFF742FC0028EDD04A
:104A300065B1FFF737FB616A19B1236B1968C1F1E2
:104A40003801A06800F064FDFFF74CFB002080E710
:104A500070B50D46044640B94FF0500383F31188FA
:104A6000BFF36F8FBFF34F8FFEE7866800F0BAFC8D
:104A7000864204D10120E3680133E36070BD29461A
:104A80002046FFF728FF0028F8D0E3680133E360F1
:104A9000F4E70000002330B5064A52F8335002EB29
:104AA000C3041DB942F83310606030BD0133082BD8
:104AB000F3D1FAE71817002070B504460D461646E4
:104AC000FFF7F0FA94F84430FF2B04BF002384F87A
:104AD000443094F84530FF2B04BF002384F8453060
:104AE000FFF700FBA36B2BB93246294604F12400E3
:104AF00000F0CAFB2046BDE87040FFF72BBC000069
:104B00002DE9F0410446FFF7CDFA304B304E1A68DC
:104B1000304F01321A603568002D4BD134601B686C
:104B2000012B1FD1B84640460135FFF725FA382D35
:104B300008F11408F7D1DFF8A080284D4046FFF7B0
:104B40001BFA2846FFF718FA2548FFF715FA2548FB
:104B5000FFF712FA2448FFF70FFA244BC3F800803E
:104B6000234B1D601420234A136801331360224A2B
:104B700063641168E36A8B4200FB037004F1040173
:104B800088BF1360FFF706FAFFF7ACFA1B4B1B68F0
:104B900073B13368DA6AE36A9A4209D24FF0E023CC
:104BA0004FF08052C3F8042DBFF34F8FBFF36F8FC8
:104BB000BDE8F081114B1A68E36A002AD2D132684D
:104BC000D26A9A4298BF3460CCE700BF7C170020BD
:104BD000501C0020F0170020DC170020C817002010
:104BE000AC1700209817002080170020C417002061
:104BF000C0170020601700207417002070170020D5
:104C0000F8B50646144B154D1C6828680F4604304D
:104C1000FFF7E2F9731C07D137B129681048043156
:104C2000BDE8F840FFF7B6B92B68A4195C6007D35C
:104C30000C4B18682968BDE8F8400431FFF7B5B996
:104C4000094B186829680431FFF7AFF9074B1A6858
:104C5000A24288BF1C60F8BD78170020501C0020BD
:104C600080170020C0170020C41700205C17002008
:104C7000064A13681968064B19B94FF0FF321A60DB
:104C800070471268D268D2685268F8E7C4170020EB
:104C90005C17002010B50446543001F05BF994F81D
:104CA000A5303BB9206BFFF729F92046BDE810403D
:104CB000FFF724B9012BF8D0022B08D04FF0500396
:104CC00083F31188BFF36F8FBFF34F8FFEE710BDE3
:104CD00080B5134C134F144D236873B9134B1B68E5
:104CE000012BF8D94FF0E0234FF08052C3F8042D88
:104CF000BFF34F8FBFF36F8FEDE7FFF7D3F9FB687B
:104D0000DE68301DFFF768F92B68013B2B602368D4
:104D1000013B2360FFF7E6F93046FFF7BBFFDBE717
:104D200094170020981700207C170020F01700200F
:104D30002DE9F0470D46DDE9099496003246074615
:104D4000A521206B984601F0EDF8236B043E1E442C
:104D500026F00706002D41D06B1E04F133020F35FB
:104D600013F8011F02F8011F09B1AB42F8D100236B
:104D700084F84330089D4FF0000A372D28BF3725AF
:104D8000201DE562E564C4F850A0FFF700F9C5F105
:104D9000380504F11800FFF7FAF84C225146C4F820
:104DA000A0A02461A561646284F8A4A004F1540069
:104DB00001F0B8F80B4B394603F16802A365D03314
:104DC000E265304642462366FFF746F92060B9F1B6
:104DD000000F01D0C9F80040BDE8F08784F83450D6
:104DE000C8E700BF801D002070B586B0DDE90B5418
:104DF00045B94FF0500383F31188BFF36F8FBFF3B2
:104E00004F8FFEE744B94FF0500383F31188BFF38F
:104E10006F8FBFF34F8FFEE7A8260596059EA82E3D
:104E200008D04FF0500383F31188BFF36F8FBFF3A7
:104E30004F8FFEE72563022584F8A55004AD019548
:104E40000A9D02940095059EFFF772FF2046FFF72A
:104E500057FE049806B070BD2DE9F043074685B0B3
:104E60009000884616469946FEF7B0FF054620B9E1
:104E70004FF0FF3005B0BDE8F083A820FEF7A6FF95
:104E8000044698B1002380F8A5300D9B056301937B
:104E90000C9B324641460290009338464B46FFF742
:104EA00047FF2046FFF72CFE0120E3E72846FFF7E7
:104EB00025F8DDE710B5002488B007AA06A905A8E3
:104EC000CDE90544FEF744FF059B079A0293069B34
:104ED0001949CDE9004319482346FFF785FF40B340
:104EE00000F070FC012819D14FF0500383F31188B2
:104EF000BFF36F8FBFF34F8F114B124A1B685433B0
:104F000013604FF0FF32104B1A60104B1860104BBB
:104F10001C6008B0BDE81040FFF744B9013008D16B
:104F20004FF0500383F31188BFF36F8FBFF34F8FA0
:104F3000FEE708B010BD00BF99710008D14C000811
:104F4000501C0020340100205C1700207017002046
:104F500078170020024A136801331360704700BFBE
:104F600058170020014B1868704700BF78170020C1
:104F7000404B2DE9F74F1B68002B73D13E4B1C684B
:104F800001341C60BCB93D4B1A68126842B14FF045
:104F9000500383F31188BFF36F8FBFF34F8FFEE78A
:104FA000374A1968106818601160364A136801336F
:104FB0001360FFF75DFE344D4FF0000B2B68334E4E
:104FC0009C42334F12D214213A68D26A4A43B258F3
:104FD000022A304A28BF4FF0010B1268002A18BF7E
:104FE0004FF0010B584603B0BDE8F08FDFF88C900E
:104FF000DFF8A4A0D9F8002012681AB94FF0FF32E8
:105000002A60E0E7D9F80020D268D2F80C80D8F8FE
:1050100004108C4201D22960D5E708F10403184638
:105020000193FEF7D9FFD8F8281019B108F118003C
:10503000FEF7D2FF1423D8F82C00DAF800108842CB
:1050400088BFCAF8000008F1040103FB0060FEF706
:10505000A1FF3868D8F82C10C26A914228BF4FF0DF
:10506000010BC7E70D4A4FF0000B136801331360C3
:10507000B8E700BF5817002078170020C417002099
:10508000C0170020641700205C170020F0170020D4
:10509000501C002068170020741700206C17002097
:1050A0002DE9F041304C236843B94FF0500383F3AE
:1050B0001188BFF36F8FBFF34F8FFEE7FEF7F2FF4C
:1050C0002368013B236024682CB10024FFF70AF811
:1050D0002046BDE8F081254B1B68002BF5D0244D00
:1050E000244EDFF894801DE0EB68DC68271D04F196
:1050F0001800FEF771FF3846FEF76EFF1420E36AD2
:10510000326800FB03809342394688BF3360FEF764
:1051100041FF1A4BE26A1B68DB6A9A4202D3012202
:10512000174B1A602B68002BDED10CB1FFF7A0FDE6
:10513000144D2C6844B10127114EFFF719FF00B13F
:105140003760013CF9D12C600D4B1B68002BBCD0A3
:105150004FF0E0234FF08052C3F8042DBFF34F8F80
:10516000BFF36F8F0124B1E7581700207C17002090
:10517000AC17002074170020F0170020501C0020EE
:10518000681700206C17002008B550B94FF0E023D5
:105190004FF08052C3F8042DBFF34F8FBFF36F8FD2
:1051A00008BD0A4B196841B14FF0500383F31188D1
:1051B000BFF36F8FBFF34F8FFEE7FFF7CBFEFFF715
:1051C0001FFDFFF76DFF0028E0D0E9E7581700202A
:1051D0001A4B70B51A681A4B12B101221A6070BDD1
:1051E0001426184D1A602A68174906FB02F3CC589A
:1051F000C818B4B14468083364680B449C4208BFC3
:105200006368446008BF4360142303FB02114B68CA
:10521000D9680E4B19602A601B680D4A543313601D
:10522000DDE742B94FF0500383F31188BFF36F8F6E
:10523000BFF34F8FFEE7013AD7E700BF58170020B2
:105240006817002074170020F0170020501C002061
:105250003401002010B50C4640B94FF0500383F3E1
:105260001188BFF36F8FBFF34F8FFEE7054B1968AF
:105270001831FEF79AFE2046BDE810400121FFF7E5
:10528000BFBC00BF501C002038B50D46144640B9C5
:105290004FF0500383F31188BFF36F8FBFF34F8F2D
:1052A000FEE7084B19681831FEF774FE002C214602
:1052B00008BF2846BDE8384018BF4FF0FF30FFF761
:1052C0009FBC00BF501C002038B5C368DC6844B9DF
:1052D0004FF0500383F31188BFF36F8FBFF34F8FED
:1052E000FEE704F118052846FEF776FE104B1B6812
:1052F000DBB9251D2846FEF76FFE0E4A1420116803
:10530000E36A8B42294688BF13600B4A00FB0320E7
:10531000FEF740FE094BE26A1B68DB6A9A4285BFD2
:105320000120074B0020186038BD29460548EFE7EB
:105330005817002074170020F0170020501C002080
:1053400068170020AC170020034B1B680360034B59
:105350001B684360704700BF641700207817002067
:1053600070B50C46054640B94FF0500383F31188E1
:10537000BFF36F8FBFF34F8FFEE741B94FF050037C
:1053800083F31188BFF36F8FBFF34F8FFEE7FEF7F4
:1053900089FE0F4B196823685A1C10D00D482E68DF
:1053A00000686A68864201D08A420FD9881A83420F
:1053B0000AD95B1A134428462360FFF7C5FF00246F
:1053C000FEF790FE204670BD002323600124F7E71E
:1053D00078170020641700200122014B1A607047E3
:1053E00068170020014B1868704700BF501C002050
:1053F000054B1B6833B1054B1868B0FA80F04009C3
:105400004000704701207047701700205817002097
:10541000F8B5044638B31A4DC36A2A68D26A934273
:1054200026D28269174E002AA1BF2A68D26AC2F129
:1054300038028261142202FB036342699A4213D14B
:10544000071D3846FEF7C8FD14202B680E4ADB6A9C
:10545000116800FB03608B42E362394688BF13602A
:10546000FEF798FD0120F8BD2B68DB6AC362F9E7FF
:105470002B68C06CDB6A98422CBF00200120F2E749
:10548000501C0020F01700207417002038B508B910
:10549000002038BD1B4B1C68844208D04FF05003DD
:1054A00083F31188BFF36F8FBFF34F8FFEE7236D38
:1054B00043B94FF0500383F31188BFF36F8FBFF3ED
:1054C0004F8FFEE7E16AE26C013B91422365DFD03A
:1054D000002BDDD1251D2846FEF77EFD1420E36C50
:1054E000C3F13802A261084AE36211688B4288BFA7
:1054F0001360064A294600FB0320FEF74BFD0120FE
:10550000C7E700BF501C002074170020F0170020D0
:1055100070B50446002841D0026D42B94FF05003E7
:1055200083F31188BFF36F8FBFF34F8FFEE7C36C18
:10553000994238BF1946C36A8B422FD0012A2DD118
:10554000174A1268824208D14FF0500383F3118842
:10555000BFF36F8FBFF34F8FFEE78269114D002AB3
:105560004FF0140202FB03534269C162A4BFC1F1B0
:10557000380181619A4211D1061D3046FEF72CFD9B
:105580001420094AE36A116800FB03508B4231463C
:10559000BDE8704088BF1360FEF7FCBC70BD00BF63
:1055A000501C0020F017002074170020044B1A68CC
:1055B0001AB119680A6D01320A651868704700BF90
:1055C000501C002070B5194C06460D46FEF76AFDCA
:1055D0002368D3F8A0308BB90121236883F8A41085
:1055E00065B12846FFF70CFB4FF0E0234FF08052E7
:1055F000C3F8042DBFF34F8FBFF36F8FFEF772FD1B
:10560000FEF750FD2368D3F8A05025B1236856B1AA
:105610000022C3F8A0200022236883F8A420FEF70C
:1056200061FD284670BD6A1EF3E700BF501C0020D4
:10563000F8B50D4616461F46044640B94FF05003D4
:1056400083F31188BFF36F8FBFF34F8FFEE7FEF731
:1056500029FD17B1D4F8A0303B60022294F8A430A1
:1056600084F8A420DBB2042E30D8DFE806F008036B
:10567000262C2A00D4F8A0202A43C4F8A020012B0D
:1056800041D1251D2846FEF7A7FC1420214AE36AD4
:1056900011688B4288BF13601F4A294600FB032014
:1056A000FEF778FCA36AF3B14FF0500383F311883F
:1056B000BFF36F8FBFF34F8FFEE7D4F8A020013206
:1056C000DBE7022B24D0C4F8A050D8E7D4F8A02000
:1056D0000132D4D04FF0500383F31188BFF36F8FA2
:1056E000BFF34F8FFEE70D4BE26A1B68DB6A9A42FD
:1056F00009D94FF0E0234FF08052C3F8042DBFF3D7
:105700004F8FBFF36F8F0124FEF7ECFC2046F8BDEE
:105710000024F9E774170020F0170020501C002027
:10572000914208B5416000610AD8D21A83699A4251
:105730000DD2084B011D1868FEF737FC002008BD8C
:105740009A4201D2994202D2034B011DF3E7012094
:10575000F5E700BF501D0020541D0020F7B5114C87
:10576000FEF7A0FC2568BDB90F4F104E3846FEF776
:1057700003FC3046FEF700FC0D4B10211F600D4B63
:105780000A201E600C4A0D4B0095FEF758FE206063
:1057900010B10B49FFF77EF903B0BDE8F040FEF70A
:1057A000A1BC00BF4C1D00206C1D0020581D002016
:1057B000541D0020501D0020A41C0020541C00205B
:1057C0009E71000810B588B0FFF7C8FF124B1B6828
:1057D000B3B1002407AA06A905A8CDE90544FEF740
:1057E000C3FA059B079A0293069B0C490193022377
:1057F0000B4800932346FFF7F7FA0A4B186040B9AD
:105800004FF0500383F31188BFF36F8FBFF34F8FB7
:10581000FEE7012008B010BD4C1D0020A371000858
:1058200025590008481D00207FB5164604461A4633
:1058300040B94FF0500383F31188BFF36F8FBFF36C
:105840004F8FFEE70D4D286880B10529CDE9001680
:1058500002940DDCFFF7CCFD0023022818BF1A4686
:10586000694608BF089A2868FEF737FE04B070BD85
:1058700000236946FEF734FFF8E700BF4C1D002007
:105880002DE9F3470646FFF76DFBDFF88C800546F0
:10589000D8F80030834209D9204F3B681A686AB9AA
:1058A0001F4A116813603960012300E00023284675
:1058B0003360C8F8005002B0BDE8F087DB68DC68F0
:1058C000D3F8009004F1040A5046FEF785FB236AE2
:1058D0002046984794F828305B07DED5A3694B44EF
:1058E000994506D25146386863602461FEF75DFB36
:1058F000D3E700234A46194620460093FFF794FF5A
:105900000028CAD14FF0500383F31188BFF36F8F83
:10591000BFF34F8FFEE700BF441D0020541D002041
:10592000501D00202DE9F0436E4D6F4E89B02B685D
:10593000D3F80080B8F1000F35D00024DB68D3F82D
:105940000080FFF707FB04A8FFF79AFF049B81463E
:10595000002B69D1002C4CD1404550D3FFF7A0FB60
:105960002B68DB68DF68381DFEF736FB97F82830B8
:1059700058071AD5B96943464A4638464144FFF7A5
:10598000CFFEB0B123464246214638460094FFF789
:105990004BFF70B94FF0500383F31188BFF36F8F43
:1059A000BFF34F8FFEE70124CBE723F0010387F815
:1059B000283038463B6A98470022306804A9FEF731
:1059C000ECFE0028B3D0049B0698002B2FDB069C2E
:1059D0006369002B32D103A8FFF752FF049B0246F4
:1059E000092BE9D8DFE803F02E2E2E575E762E2EF7
:1059F000575E3E4B1B681C68B4FA84F46409224667
:105A00003068A8EB0901FFF757F8FFF749FB0028BA
:105A1000D2D14FF0E0234FF08052C3F8042DBFF3F2
:105A20004F8FBFF36F8FC7E7FFF73AFBC4E7059BC4
:105A300007999847049B002BBEDBC8E7201DFEF7A3
:105A4000CBFAC8E794F82830A16943F0010384F841
:105A50002830059B20461944FFF762FE0028ABD092
:105A6000236A2046984794F828305907A4D5002384
:105A7000A269059920460A4400931946FFF7D4FE0F
:105A8000002899D14FF0500383F31188BFF36F8F33
:105A9000BFF34F8FFEE794F8283023F0010384F81A
:105AA000283089E794F8283043F0010384F828303F
:105AB0000599A16141B94FF0500383F31188BFF3F9
:105AC0006F8FBFF34F8FFEE7034601442046FFF779
:105AD00027FE71E794F828309A07DED42046FEF7B7
